S00D000061726669642E7372656311
S11300000C94AD020C94E8020C94E8020C94674042
S11300100C94E8020C94E8020C94E8020C94F104A9
S11300200C94E8020C94E8020C94E8020C94E802A4
S11300300C94E8020C94E8020C94E8020C94BD338E
S11300400C94E8020C94E8020C9421510C94E802FC
S11300500C941B4F0C946B470C94E8020C94E8022C
S11300600C94E8020C94E8020C94E8020C94E80264
S11300700C94E8020C942A550C94E8020C94E802BF
S11300800C94E8020C94FF480C94E8020C94225956
S11300900C9428130C9448130C9463130C944C196B
S11300A00C94B6310C94E3310C9406320C94E3189E
S11300B00C94951D0C9465190C9494360C948C3501
S11300C00C94CB360C9412550C9477380C94BC3E9B
S11300D00C94CD130C94DF2C0C9467130C94000037
S11300E00C94B5220C940F3C0C942E3C0C944D3C77
S11300F00C94663C0C94713C0C948A3C0C94E21372
S11301000C94E6130C94CE1D0C944A460C9496461B
S11301100C94C3460C9423380C944F380C94243913
S11301200C94A7380C94D1380C94124C0C94404C79
S11301300C94634C0C94B34C0C948B180C94923A1E
S11301400C94DA3A0C94BA390C94DE390C9400000D
S11301500C9400000C9400000C9400000C9400001B
S11301600C9400000C94FC380C940000000009006E
S113017000000000000000000000ED090000110074
S113018000000000000000000000C20C0B00800012
S113019001000000800001020000640FAE3E4376BF
S11301A076308D010B008100010000008100010206
S11301B00000B80FAE3E437676308D010000020099
S11301C00000000000000000000083130000140081
S11301D001000000000000000000011CFE1B637A07
S11301E07631FFFF00001001000000000000000055
S11301F000009424000006000C0000000000000031
S113020000000038AE3E63437732FFFFAE3E6343E7
S11302107732FFFFAE3E63437732FFFFAE3E634368
S11302207732FFFFAE3E63437732FFFFAE3E634358
S11302307732FFFFAE3E63437732FFFFAE3E634348
S11302407732FFFFAE3E63437732FFFFAE3E634338
S11302507732FFFFAE3E63437732FFFFAE3E634328
S11302607732FFFF000006000800000000000000D5
S113027000007A39AE3E63437732FFFFAE3E6343FC
S11302807732FFFFAE3E63437732FFFFAE3E6343F8
S11302907732FFFFAE3E63437732FFFFAE3E6343E8
S11302A07732FFFFAE3E63437732FFFFAE3E6343D8
S11302B07732FFFF0000480100000000000000004A
S11302C000008B3F0000450000000000000000001B
S11302D00000CB43000043000A00000000000000BF
S11302E000000D46AE3E63435333FFFFAE3E63430F
S11302F05333FFFFAE3E63435333FFFFAE3E6343CE
S11303005333FFFFAE3E63435333FFFFAE3E6343BD
S11303105333FFFFAE3E63435333FFFFAE3E6343AD
S11303205333FFFFAE3E63435333FFFFAE3E63439D
S11303305333FFFF00002110422063308440A55056
S1130340C660E770088129914AA16BB18CC1ADD117
S1130350CEE1EFF13112100273325222B5529442BF
S1130360F772D662399318837BB35AA3BDD39CC367
S1130370FFF3DEE36224433420040114E664C7740B
S1130380A44485546AA54BB528850995EEE5CFF5B7
S1130390ACC58DD55336722611163006D776F6665F
S11303A09556B4465BB77AA719973887DFF7FEE707
S11303B09DD7BCC7C448E5588668A778400861182B
S11303C002282338CCC9EDD98EE9AFF94889699957
S11303D00AA92BB9F55AD44AB77A966A711A500AFF
S11303E0333A122AFDDBDCCBBFFB9EEB799B588BA7
S11303F03BBB1AABA66C877CE44CC55C222C033C4B
S1130400600C411CAEED8FFDECCDCDDD2AAD0BBDF6
S1130410688D499D977EB66ED55EF44E133E322E9E
S1130420511E700E9FFFBEEFDDDFFCCF1BBF3AAF46
S1130430599F788F8891A981CAB1EBA10CD12DC1A4
S11304404EF16FE18010A100C230E320045025403A
S113045046706760B9839893FBA3DAB33DC31CD39A
S11304607FE35EF3B1029012F322D232354214528A
S113047077625672EAB5CBA5A89589856EF54FE5E6
S11304802CD50DC5E234C324A014810466744764DA
S113049024540544DBA7FAB79987B8975FE77EF73A
S11304A01DC73CD7D326F2369106B016576676762A
S11304B0154634564CD96DC90EF92FE9C899E98906
S11304C08AB9ABA94458654806782768C018E1087A
S11304D08238A3287DCB5CDB3FEB1EFBF98BD89BDA
S11304E0BBAB9ABB754A545A376A167AF10AD01ACA
S11304F0B32A923A2EFD0FED6CDD4DCDAABD8BAD26
S1130500E89DC98D267C076C645C454CA23C832C19
S1130510E01CC10C1FEF3EFF5DCF7CDF9BAFBABF79
S1130520D98FF89F176E367E554E745E932EB23E69
S1130530D10EF01E0F570F570D563A566856645693
S1130540705673567A56805685569356A056A856BA
S1130550B256BC56CA56DB56F95611241FBECFEF0D
S1130560D0E1DEBFCDBF94B79F719093F00B14BE62
S11305708AB387608ABBD99ADA9AD89A93FF03C060
S113058081E00E94BC3E8091F00B81FF03C082E0B9
S11305900E94BC3E8091F00B80FF03C082E00E9469
S11305A0BC3E11E0A0E0B1E0E6ECF3EB00E00BBFF1
S11305B002C007900D92AC31B107D9F71BE0ACE152
S11305C0B1E001C01D92A03FB107E1F70C940F0305
S11305D00C940000D29AD09AD19AA79AA69AA59A76
S11305E0A49AA39AA29AA19AA09AD498DC98D39A8E
S11305F08B9A8D9ADB9A08950E94EA020E944E55C6
S113060063E080E10E9462550E9477530E94F73EA6
S11306100E94F14B0E9410460E94510B0895CFEFA7
S1130620D0E1DEBFCDBF80E00E941A0380E090E0FD
S11306300C94E2591F93182FF8940E9484350E9459
S113064076120E94273D0E94AC190E949F36812F8A
S11306500E9477140E9403380E94DB270E940D3405
S11306600E94FC020E9463220E94E11D0E94C911A3
S11306700E94C72778940E947E130E946C1780E022
S113068090E01F910895009761F0000000000000C1
S113069000000000000000000000000000000197BE
S11306A0F2CF08950F931F93CF93DF938C0100979C
S11306B031F0EC01C8010E9443032197D9F7DF917F
S11306C0CF911F910F910895D59AD69ABA9AB99A53
S11306D0B89ABB9816988F988E988C98C39A969AC5
S11306E0949A6C9A08951F93CF93182FCFB7F894C8
S11306F00E94640327E030E0412F552761E070E059
S1130700CB01022E02C0880F991F0A94E2F78423BA
S11307109523022E02C0959587950A94E2F7892BBA
S113072011F0C29A01C0C298C19AC19821503040B8
S113073037FFE6CFCFBFCF911F9108951F93CF937B
S1130740DF93EC011FB7F8940E9464032FE030E0BC
S113075041E050E0CA01022E02C0880F991F0A949A
S1130760E2F78C239D23022E02C0969587950A9466
S1130770E2F7892B11F0C29A01C0C298C19AC198BC
S11307802150304037FFE6CF1FBFDF91CF911F913B
S113079008950F931F93CF93DF93EC0110E00FB7ED
S11307A0F8940E94640327E030E041E050E0C19AED
S11307B0B39B08C0CA01022E02C0880F991F0A9475
S11307C0E2F7182BC1982150304037FFF0CF18833F
S11307D00FBFDF91CF911F910F910895FF920F9357
S11307E01F93CF93DF938C01C0E0D0E0FFB6F89461
S11307F00E9464032FE030E041E050E0C19AB39BD3
S113080009C0CA01022E02C0880F991F0A94E2F798
S1130810C82BD92BC1982150304037FFEFCFF801B6
S1130820C083D183FFBEDF91CF911F910F91FF90C1
S11308300895EF92FF920F931F93F62EE42E8901F1
S1130840C09AC09880640E947303C8010E94EE039A
S11308508F2D992787FD909501962FEF3FEFA901E2
S113086002C0440F551F8A95E2F76E2D772767FD66
S1130870709580E190E0861B970B02C03695279512
S11308808A95E2F7422B532B40955095F8018081CD
S113089091818423952302C0969587956A95E2F702
S11308A080839183C09AC0981F910F91FF90EF901D
S11308B00895DF92EF92FF920F931F93CF93DF93EC
S11308C0CDB7DEB722970FB6F894DEBF0FBECDBF0B
S11308D0D82E162F042F7901C09AC09880640E94E4
S11308E07303CE0101960E94EE03812F992787FDA1
S11308F0909501962FEF3FEFA90102C0440F551FB9
S11309008A95E2F7112707FD109580E190E0801B9E
S1130910910B02C0369527958A95E2F7422B532B0B
S113092089819A818423952389839A83009749F046
S113093002C0EE0CFF1C0A95E2F78E299F298983D9
S11309409A838D2D0E94730389819A810E949E034C
S1130950C09AC09822960FB6F894DEBF0FBECDBFE2
S1130960DF91CF911F910F91FF90EF90DF90089549
S1130970C0980E94730386E291E00E94C903C09A62
S1130980C09808959093250180932401089590932D
S113099023018093220108959093210180932001E3
S11309A0089590931F0180931E0170931D0160931D
S11309B01C01089589B78F7B89BF8AB780628ABF7B
S11309C08AB780618ABF89B7806489BF8FB780681E
S11309D08FBF089589B78F7B89BF8FB78F778FBFFC
S11309E008951F920F920FB60F9211242F933F93E5
S11309F04F935F936F937F938F939F93AF93BF9323
S1130A00EF93FF930E9B0BC0E0912401F09125011D
S1130A10309729F080912701909128010995FF9141
S1130A20EF91BF91AF919F918F917F916F915F9162
S1130A304F913F912F910F900FBE0F901F901895DB
S1130A4021E030E04BE0642F81E10E9459040895D5
S1130A5020E030E04BE0642F81E10E9459040895C6
S1130A600895089581E00E94B8048091260186FDCE
S1130A7002C080E0F8CF88E00E94B80488E00E94B9
S1130A80B80489E00E94B80483E00E94B804089581
S1130A901F93CF93DF93CDB7DEB724970FB6F894A7
S1130AA0DEBF0FBECDBF1FB7F8940E946403DD9A6A
S1130AB082E390E00E944303DE9884E190E00E9488
S1130AC04303DE9A0E94320521E030E046E067E00D
S1130AD081E10E94590421E030E04BE0642F81E180
S1130AE00E94590421E030E044E0642F81E10E9437
S1130AF05904809104019091050189839A83C09AD5
S1130B00C0988AEE0E94730380E80E94730389816F
S1130B100E947303FE01319681810E947303C09A7F
S1130B20C09880E294E28B839C83C09AC09888EE3C
S1130B300E94730380E80E9473038B810E947303F5
S1130B408C810E947303C09AC0981FBF24960FB66D
S1130B50F894DEBF0FBECDBFDF91CF911F910895F2
S1130B60CF93DF93C0E0D0E080E00E94B80480918E
S1130B70260183FF05C0CE011FC081E090E01CC0A8
S1130B8083E00E94B8048091260181FD02C080E0C8
S1130B90F8CF80E00E94B80480B3992780749070E5
S1130BA026E0959587952A95E1F7009731F72196E8
S1130BB023E0C83ED2076CF3DF91CF910895CF9321
S1130BC0DF93C0E0D0E080E00E94B80484990CC0B8
S1130BD0C1E0D0E080E00E94B804849905C0219669
S1130BE083E0C83ED807B4F3C85ED34094F4809140
S1130BF01E0190911F01892B49F00E941255DC01BE
S1130C00CB01E0911E01F0911F01099581E090E074
S1130C1002C080E090E0DF91CF9108950F931F937D
S1130C20CF93DF93EC01162FC0988EE30E947303D9
S1130C30812F0E947303812F9927009749F08E0119
S1130C40EC01F80181918F010E9473032197C9F788
S1130C50C09A85E00E94B80480912601992785FDF9
S1130C6002C083FD06C089E00E94B80480E090E0E1
S1130C7002C081E090E0DF91CF911F910F91089520
S1130C80CF93DF93C0E0D0E08091260181FD09C0BD
S1130C9083E00E94B8048091260181FD02C080E0B7
S1130CA0F8CF869B0BC0219683E0C83ED807CCF3CF
S1130CB0CF5FDF4F31F481E090E005C0CFEFDFEF8D
S1130CC0F7CF80E090E0DF91CF910895EF92FF920B
S1130CD00F931F93CF93DF938C017B01FC01C081A1
S1130CE08181C80F8281C80FC13838F089E00E9421
S1130CF0B80480E00E94B80449C089E00E94B804A6
S1130D00C0988EE30E9473038C2F0E947303C0E08B
S1130D10D0E0F801A381B481AC0FBD1F8C910E9477
S1130D2073032196C330D105A4F3C4E0D0E0F801E5
S1130D30A381B481AC0FBD1F8C910E9473032196D3
S1130D40CD30D105A4F3F8018181C0E0D0E088233F
S1130D5079F0F801A581B681AC0FBD1F8C910E947A
S1130D6073032196F80181819927C817D9078CF359
S1130D70C09A85E00E94B80480E00E94B8040E94F2
S1130D801255DC01CB01F70180839183DF91CF9170
S1130D901F910F91FF90EF900895CF92DF92EF9201
S1130DA0FF920F931F93CF93DF93CDB7DEB72397B3
S1130DB00FB6F894DEBF0FBECDBF7C0180B3082F01
S1130DC01127000F012F001F110B1195011511059B
S1130DD011F40E9970C0C0988FE70E947303CE017E
S1130DE001960E94C90389818F778983F7018381E2
S1130DF094810E94C903F7018381948101960E9422
S1130E00C903F701A381B4818C91C82EDD24FD01AF
S1130E1081819927982F8827C82AD92ACD0102963B
S1130E200E94C9032981253078F12530F1F4F2E0DC
S1130E30CF16D104D1F4CE0102960E94C903CE018B
S1130E4003960E94C9038B8187FF07C0F701A38122
S1130E50B481FD0182810E945C0AC09A88E00E94EC
S1130E60B80488E00E94B80488C0F7019081822FFA
S1130E70891B3281831B8183213830F4921720F43B
S1130E80821710F4321748F0C09A88E00E94B80420
S1130E9088E00E94B80480E0E5CF8823B9F040E000
S1130EA063E699270E9414118C01F70185839683C8
S1130EB0892B61F4C09A88E00E94B80488E00E94FB
S1130EC0B80480E00E94B804C80159C014E0F701D6
S1130ED080819927019605978CF0F701838194818D
S1130EE0810F911D0E94C9031F5F212F3327F70132
S1130EF0808199270196281739077CF310E0F701C0
S1130F008181181748F4F70185819681810F911D1D
S1130F100E94C9031F5FF3CF10E0F7018281181705
S1130F2048F4F70187819085810F911D0E94C903C0
S1130F301F5FF3CFC09A88E00E94B80488E00E9443
S1130F40B80480E00E94B804F701A781B085A10F1E
S1130F50B11D1197EC91EB838FED9FEFC822D9223D
S1130F60CD2829F0E7FF03C081E090E008C060E0ED
S1130F70F701858196810E94981180E090E0239684
S1130F800FB6F894DEBF0FBECDBFDF91CF911F9196
S1130F900F91FF90EF90DF90CF9008958FB7F89462
S1130FA0909156018FBF892F9927089569E086E4AF
S1130FB091E00E940B1BE0912B01F0912C013097E2
S1130FC061F0608571856115710539F082859385BD
S1130FD082FF03C089E00E949B1289E00E94DB1219
S1130FE0089569E086E491E00E944F1B0895909370
S1130FF02A01809329010895EF92FF920F931F9382
S11310008C017B01FC018781825FFB018583F801F0
S1131010828193810E943005F70184879587F801C6
S1131020848195810E943005F70186879787F801AE
S11310308081F701808BF8018181F701818BF801B0
S11310408681F701828BF80180859185F701838B76
S1131050948B1F910F91FF90EF9008950F931F931E
S1131060CF93DF938C01EB01FC0185818E508F833C
S1131070848595850E9431058A839B83F801868542
S113108097850E9431058C839D83F801808988832C
S11310908189898382898E838F81882319F41886B4
S11310A0198605C0F80183899489888799878A8578
S11310B09B8584608A879B87F8018589888BDF916B
S11310C0CF911F910F910895CF93DF93FC01DB0122
S11310D08CE08C933696EB01EB83FC8382E08A836D
S11310E03F96EF83F887759785818E50898383892E
S11310F094898D839E83DF91CF910895CF93DF935D
S1131100AC01FB01EC0189819881890F9A81890FD7
S113111085832B813C8136968CE0DF01E9010990BF
S11311200D928A95E1F73697EA018D819E81838B32
S1131130948B8A8199272F813885AC01B901CF011D
S113114045960E945659DF91CF910895CF93DF932E
S1131150C1E0D0E0181624F4CC0FDD1F8150E1F774
S1131160219784E0C030D80714F0CFEFD3E00E9479
S1131170CB36C823D923CE010596DF91CF910895AC
S11311808FB7F894909146018FBF892F99270895BE
S1131190DF92EF92FF920F931F93CF93DF93CDB71C
S11311A0DEB7A2970FB6F894DEBF0FBECDBF7C01A9
S11311B00E94B005D82E90915701882309F4B6C037
S11311C0992371F49FB7F894809156018F3F21F4CD
S11311D09FB7F89481E001C08F5F809356019FBF51
S11311E0F7018681803161F40E941255DC01CB0144
S11311F0F70120853185F90180839183A283B3832C
S1131200BE016F5F7F4FC7010E94FC07F701828117
S113121093818F5F9F4F21F0F7018681803119F40C
S113122081E498E802C081E698E88F83988780E299
S113123094E20E9430058B879C870E94CE078987A1
S113124081E090E08E8B9F8B8E01085E1F4FB8016A
S1131250CE0101960E9464080E941255DC01CB0164
S1131260AC01BD01C7010E943537BE016F5D7F4FE0
S1131270C8010E946606F701828193818F5F9F4FA8
S113128021F0F7018681803171F41092570149E011
S113129061E0C7010E94BC1B10922C0110922B012B
S11312A010922D018CC090915701953028F582E061
S11312B080932D01F0922C01E0922B01892F0E9442
S11312C0A6080296AA2797FDA095BA2F9C01AD0106
S11312D060E089E00E946331882309F44DC0809165
S11312E057010E94A6080296AA2797FDA095BA2F37
S11312F09C01AD0160E03DC01092570149E060E0FF
S113130080912B0190912C010E94BC1B10922C0106
S113131010922B0110922D010E94C008882309F419
S11313204EC0EE24FF24870120E044C0953050F5E0
S113133081E080932D01F0922C01E0922B01892F02
S11313400E94A608AA2797FDA095BA2F9C01AD017B
S11313506D2D89E00E946331882371F080915701DB
S11313600E94A608AA2797FDA095BA2F9C01AD015B
S11313706D2D89E00E942A31809157018F5F8093FF
S113138057011DC08093570149E0682F80912B01BC
S113139090912C010E94BC1B10922C0110922B01E5
S11313A0D0922D010E94C008882349F0EE24FF2426
S11313B087012D2D40E269E0862F0E945018A296E5
S11313C00FB6F894DEBF0FBECDBFDF91CF911F9152
S11313D00F91FF90EF90DF900895CF93FB018681EA
S11313E099278032910599F0813291051CF4029776
S11313F021F048C0819719F145C0CFB7F894809186
S11314002B0190912C010E94C808CFBF3BC0CFB7DD
S1131410F89480912B0190912C01892B71F41092F6
S1131420570186E491E00E94211A90932C01809345
S11314302B01009711F00E94C808CFBF23C0CFB77B
S1131440F89460E089E00E94403010922D011092DF
S1131450570149E061E080912B0190912C010E9499
S1131460BC1B10922C0110922B0186E491E00E9487
S1131470211A90932C0180932B01009711F00E9464
S1131480C808CFBF80E090E0CF910895CF93BC010E
S1131490CFB7F89480912D01882331F086E491E050
S11314A00E94CB19CFBF06C080935701CB010E9485
S11314B0C808CFBFCF910895EF92FF920F931F9367
S11314C0182F80912D01823069F40E94CE07811774
S11314D049F4EE24FF24870120E041E269E0862FED
S11314E00E9450181F910F91FF90EF9008950F9351
S11314F01F93CF93DF93CDB7DEB7A0970FB6F894C1
S1131500DEBF0FBECDBF8E01085E1F4FB801CE01F6
S113151001960E9464080E94EA04C8010E94CD0654
S1131520882319F40E94DA04AEC00E94DA04BE01D2
S11315306F5F7F4FC8010E947E088D859E850E9443
S1131540310520910401309105018217930739F088
S11315508D859E850E9431058F5F9F4F29F40E94DF
S11315608B1B8C010097D9F460E08D8D9E8D0E94B9
S1131570981189C0F8018285938584608287938756
S1131580C8010E94A31B7FC0F801848195818D93BB
S11315909C93425A5E4F8985FA0180836BC0BC01DB
S11315A0CE0101960E942E08F8018681803161F4F3
S11315B00E941255DC01CB01F80120853185F90127
S11315C084839583A683B7830E941255DC01CB01E3
S11315D0AC01BD01C8010E942337F8014481558143
S11315E0FFEF4F3F5F0709F445C020E0322FEEE5DF
S11315F0F1E0A8E5B1E08D919D914817590739F4C0
S113160099858081981709F4B5CF908333C02F5FF3
S11316103196233080F3232F40E050E0DA01A40F09
S1131620B51FA85ABE4F8D919C9111978F5F9F4F04
S113163009F4AACF2F5F4F5F5F4F233078F3809177
S11316406101282F3327D901A20FB31FA85ABE4F17
S1131650F801848195818D939C93F901E25AFE4FA0
S113166089858083C901019663E070E00E949259E4
S113167080936101F80182859385936082879387C3
S1131680C8010E94EC16A0960FB6F894DEBF0FBEF8
S1131690CDBFDF91CF911F910F91089580E090E02D
S11316A008951F930E9448052FE631E040E069E069
S11316B088E10E9459048091260186FF03C083E0DB
S11316C00E94B8048CE691E0AA2797FDA095BA2F52
S11316D0B695A7959795879540E050E0BC018EE3B9
S11316E091E00E944A1421E040E069E08EE291E03A
S11316F00E94BF3086E491E00E94B9191FB7F894A4
S11317000E94CB366FEF70E00E947E598F5F80930A
S113171056011FBF109257012FEF3FEFAEE5B1E026
S113172082E0E8E5F1E0219331931D92815087FF37
S1131730FACF1092610110922D0110922C01109297
S11317402B0187E79AE00E94C2040E94DA041F91E9
S11317500895EF92FF920F931F93182F60E081E199
S11317600E94403061E081E10E94403062E081E10A
S11317700E9440301A3018F41093920103C08AE09A
S1131780809392011092940110929501E12C44E00F
S1131790F42E012D112D0090920104C0EE0CFF1CBB
S11317A0001F111F0A94D2F7A801970160919401B8
S11317B081E10E942A318091930180FF21C00E941F
S11317C0CB369C0144275527CA01B901A8019701CA
S11317D017FF04C02F5F3F4F4F4F5F4F79018A01BE
S11317E015950795F794E794A80197010E94A559C8
S11317F09B01AC012E0D3F1D401F511F62E020C014
S11318000E94CB369C0144275527CA01B901A8017F
S1131810970117FF04C02F5F3F4F4F4F5F4F790170
S11318208A0115950795F794E794A80197010E94FA
S1131830A5599B01AC012E0D3F1D401F511F61E0B6
S113184081E10E942A311F910F91FF90EF9008953A
S11318508F929F92AF92BF92CF92DF92EF92FF92BC
S11318600F931F93CF93DF934B01AA246C010A2D8E
S11318701127116127E02A1530F0F601F284B280B5
S113188061E0E62E04C0F601F288B284EE24B801C9
S113189081E10E94C93BEC01892BC9F4FF2009F4C2
S11318A05CC040E061E186E090E00E941411EC012C
S11318B0009709F45AC0AC01B80181E10E942D3BA4
S11318C0882311F160E0CE010E9498114EC08C81F2
S11318D08B1509F442C08B81813051F0882321F4A7
S11318E0809398010E94A90BB80181E10E94082409
S11318F0888199810E94E621FF2031F4B80181E1B9
S11319000E94823B6F2D26C0FD82EA828F2D99278B
S1131910F82EEE2462E0C7010E94131F8883998386
S11319208F5F9F4F91F09401A701B80181E10E945C
S1131930D522882329F0888199810E94E62105C057
S113194081E080939801BC8210C0B80181E10E94BB
S1131950823B60E0CE010E949811A3940894C11CBC
S1131960D11C2FE02A1508F082CFDF91CF911F916F
S11319700F91FF90EF90DF90CF90BF90AF909F902A
S11319808F9008956F927F928F929F92BF92CF9281
S1131990DF92EF92FF920F931F93CF93DF93CDB714
S11319A0DEB724970FB6F894DEBF0FBECDBF6B0130
S11319B0FB018681082F11270C30110509F4A2C1FF
S11319C00D30110544F40115110509F416C2023055
S11319D0110591F058C20132110509F4B5C0023263
S11319E011052CF40032110509F477C04CC20232FF
S11319F0110509F4FFC047C2FB01A085B1858C9194
S1131A00682F772761307105B1F0623071051CF4DD
S1131A10672B29F074C16230710571F170C1809136
S1131A209301882311F080E003C0809192018F5FBD
S1131A300E94A90B64C140919801442309F05FC13D
S1131A4061E1C8010E941411DC01892B09F404C26C
S1131A50E0919901F0919A01808191818D939C93F9
S1131A6011978FEFC82ED82E04E0E02E0EE1F02E51
S1131A708D0122E040E23FC140E061E185E290E077
S1131A800E941411BC01009711F1409199015091E9
S1131A909A0125E2DC01FA01822F01900D928A95C8
S1131AA0E1F7E0919901F0919A0180819181DB0144
S1131AB08D939C931FEFC12ED12EB4E0EB2EBEE18B
S1131AC0FB2E8B0141E261E1862F0E94251D80914E
S1131AD093018E7F8093930112C1FB014085518550
S1131AE0A0919901B0919A01FA01208131818D91DF
S1131AF09C9111972817390738F0FB01848195814F
S1131B009093970180939601FA01208131818D9100
S1131B109C918217930750F02817390758F4809145
S1131B20930180FD67C181608093930180E00E94EE
S1131B30A90B60C1809194018F5F809394018823E5
S1131B4009F458C161E030C0FB01A085B185609102
S1131B50990170919A012D913C911197FB0180811B
S1131B6091812817390738F0F60184819581909383
S1131B709701809396014091930140FF19C02D91E4
S1131B803C911197FB01808191812817390781F4D9
S1131B90809195018F5F80939501882309F42AC170
S1131BA04E7F4093930162E081E10E94403022C164
S1131BB0E0919901F0919A012D913C91808191815C
S1131BC08217930708F016C180E00E94A90B60E019
S1131BD08091990190919A010E949811B60181E136
S1131BE00E94121990939A0180939901F6016481DD
S1131BF07581F4C040E061E180E290E00E9414113C
S1131C004C01009709F428C17C0166247724A7E0DD
S1131C10BA2EC3019161BC0181E10E94C93BFC0160
S1131C20892BC1F083818130A9F400E010E022E027
S1131C3030E0AE014F5F5F4F61E1808191810E948E
S1131C40D220882339F48981D7018C938A81F701C2
S1131C50808705C08FEFD7018C93F7011086BA9463
S1131C600894611C711C0894E11CF11CB7FED1CFCF
S1131C70BB248401005F1F4F7801F8E0BF0E8B2D59
S1131C80992728EFB20E9161BC0181E10E94C93B02
S1131C90FC01892BC1F083818130A9F48081918179
S1131CA00E94E321AA27BB27880F991FAA1FBB1FE5
S1131CB00896A11DB11DABBFFC0187919691D70178
S1131CC08D939C9303C0F80110821182B39482E037
S1131CD090E0E80EF91E080F191F97E09B1568F6AF
S1131CE0F601848195816C01E4E0EE2EEEE3FE2E94
S1131CF0840120E243E261E1862F0E94251D80E0F9
S1131D0090E0BDC0FB0100851185F801838184301A
S1131D1008F067C061E0C8010E94DF2310929801B7
S1131D20809198010E94A90BF8016185728581E177
S1131D300E94C93B6C01FC0182818130B9F400E04E
S1131D4010E022E030E0AE014D5F5F4F61E1808141
S1131D5091810E94D2207801D6010D911C912C8191
S1131D604BE261E18B810E94501830C0F601808102
S1131D7091810E944558D6018D919C910E94E32146
S1131D808C01C801AA27BB27880F991FAA1FBB1F54
S1131D900A96A11DB11DABBFFC0127910196A11D9F
S1131DA0B11DABBFFC018791213081F4823011F069
S1131DB08F3F61F4F601808191810E94B021F60188
S1131DC0848187FF03C0C8010E947E15609196013B
S1131DD0709197018091990190919A010E94280C29
S1131DE009C081E10E9412196091960170919701D6
S1131DF00E949C2380E090E048C021E040E061E143
S1131E0082E691E00E94BF3021E0422F61E182E747
S1131E1091E00E94BF3021E042E061E182E891E07C
S1131E200E94BF3010929301109294011092950178
S1131E301092980110939701009396014091930199
S1131E4061E185E290E00E941411FC0190939A01F3
S1131E5080939901892B19F484EF9FEF10C085E2D8
S1131E6011928A95E9F7E0919901F0919A0181E044
S1131E7090E08083918380E00E94A90BC801992798
S1131E8087FD909502C08AEE9FEF24960FB6F894D2
S1131E90DEBF0FBECDBFDF91CF911F910F91FF9099
S1131EA0EF90DF90CF90BF909F908F907F906F9036
S1131EB008958CE791E0AA2797FDA095BA2FB695CF
S1131EC0A795979587950895EF92FF920F931F9387
S1131ED0CF93DF93FC01DB01EB018E8199278230E4
S1131EE09105A9F0833091051CF4892B21F029C0B8
S1131EF0069751F126C08C9181871286228540E095
S1131F0058E060E070E0822F0E9450001DC089E01C
S1131F100E9466000E945E008C0181E090E00E94B5
S1131F204800FC01892B81F000838FEFE82EF82E06
S1131F300CE012E09F0141E064E282E80E94580054
S1131F4003C08AEE9FEF02C080E090E0DF91CF9162
S1131F501F910F91FF90EF9008958CE891E0AA27CC
S1131F6097FDA095BA2FB695A7959795879508954F
S1131F70CF93DF93FC01DB01EB018E819927823043
S1131F809105A9F0833091051CF4892B21F013C02D
S1131F900697A1F010C08C9181871286228542E0B9
S1131FA050E060E070E08AE00E94500007C088E0E2
S1131FB00E94660003C08AEE9FEF02C080E090E0BA
S1131FC0DF91CF91089584EA91E0AA2797FDA09527
S1131FD0BA2FB695A795979587950895CF93DF93D4
S1131FE0DC0113976F3F01F1892BF1F081E0AF39E8
S1131FF0B807A0F0C9E0AF39BC0780F4ED91FC91BB
S1132000119783E0EE0FFF1F8A95E1F7EA0FFB1F9C
S11320103197ED019A818081981719F08AEE9FEF2C
S113202005C06083FD01628380E090E0DF91CF9181
S11320300895CF93DF93FC01A381B48185819681B8
S1132040ED018D839E830580F681E02DA383B48307
S1132050DF91CF9108950F931F93CF93DF938C015A
S1132060F801C081D18193E0CC0FDD1F9A95E1F78F
S1132070C00FD11F8881998199236CF0CE010E94F1
S11320801910F8018081918128813981820F931F71
S113209080839183E5CFC801DF91CF911F910F9188
S11320A00895CF92DF92EF92FF920F931F93CF93F5
S11320B0DF93C62E00E010E0009711F4C8016DC054
S11320C05BE0E52EF12CE80EF91E43E0F694E7946C
S11320D04A95E1F7DFB6F894E0919D01F0919E01F5
S11320E0A581B681AE17BF0769F0CD010E942B1000
S11320F0EC01AD81BE8180919D0190919E01A81754
S1132100B90799F7E0919D01F0919E01A581B681EF
S1132110AE17BF0799F00A171B0738F48D919C91ED
S113212011978E159F0508F08D01ED01AD81BE81DB
S1132130AE17BF0781F70115110521F4DFBE80E05A
S113214090E02BC0F801808191818E199F09EC01E8
S113215033E0CC0FDD1F3A95E1F7C00FD11FC01754
S1132160D10721F4CE010E94191005C0F801808323
S11321709183E882F982E881F981F068E883F98340
S1132180CA8223E0EE0FFF1F2A95E1F7EC0FFD1F33
S11321903197C082DFBECE010396DF91CF911F91AC
S11321A00F91FF90EF90DF90CF900895CF93DF933E
S11321B0EC0180919D0190919E01FC0104C0A8173F
S11321C0B90731F0FD01A581B681AC17BD07B8F39D
S11321D0FD0183819481FC01C583D6838B839C8319
S11321E0FD01C383D483AD83BE83DF91CF91089572
S11321F0DC019B01FB0163E0EE0FFF1F6A95E1F731
S1132200E80FF91F8D919C911197821B930B80838A
S113221091832D933C93808191819F7380839183DB
S1132220CF010E94D6100895CF92DF92EF92FF92D1
S11322300F931F93CF93DF93C62E009709F46FC0BB
S1132240ABE0EA2EF12CE80EF91EF3E0F694E794E5
S1132250FA95E1F7DFB6F894E0919D01F0919E01C3
S1132260058116810E171F0769F1D801CD91DC9104
S1132270E3E0CC0FDD1FEA95E1F7C00FD11F8881A1
S1132280998199237CF0CE010E941910F801808174
S1132290918128813981820F931F808391838E15C8
S11322A09F0518F3D8018D919C918E159F0550F4CC
S11322B0E8010D811E8180919D0190919E01081776
S11322C0190799F680919D0190919E0108171907AD
S11322D021F4DFBE80E090E022C0F801808191818A
S11322E0E816F90620F4B701C8010E94F810C801E5
S11322F00E941910D801ED91FC911197F068ED93AB
S1132300FC93E801CA8273E0EE0FFF1F7A95E1F7B0
S1132310E00FF11F3197C082DFBEC8010396DF9141
S1132320CF911F910F91FF90EF90DF90CF90089580
S11323301F93CF93DF93009741F1DC01139781E062
S1132340AF39B80710F1C9E0AF39BC07F0F42D91EB
S11323503C9111973F73F901C3E0EE0FFF1FCA953B
S1132360E1F7EA0FFB1F3197ED019A8180819817FD
S113237061F41FB7F8942D933C9311978FEFFD01EF
S11323808283CD010E94D6101FBFDF91CF911F9190
S1132390089508950F931F93CF93DF93082FCFE9E8
S11323A0D1E01FB7F89480919D0190919E01C817C8
S11323B0D907B1F08A81801749F48881998197FF00
S11323C005C060E0CE0103960E949811888199812E
S11323D023E0880F991F2A95E1F7C80FD91FE3CF8F
S11323E01FBF80E090E0DF91CF911F910F9108957E
S11323F09F92AF92BF92CF92DF92EF92FF920F9390
S11324001F93CF93DF936C018B01942E009711F0EF
S1132410672B11F4B6015DC0EC012397055F1F4FD4
S1132420780153E0F694E7945A95E1F70B50104085
S1132430BFB6F894AA80888199819F77888399830D
S1132440CE010E942B10EC0188819981E816F906CF
S113245028F4B701CE010E94F81028C08E159F05FC
S113246028F57C0143E0EE0CFF1C4A95E1F72DEFC3
S11324703FEFE20EF31E90688883998340E06A2D53
S1132480C8010E941411EC01892B61F02397A70164
S1132490B601CE0103960E945659692DC6010E94C9
S11324A0981104C0BFBE60E070E013C0E881F981F8
S11324B0F068E883F983AA8233E0EE0FFF1F3A95B0
S11324C0E1F7EC0FFD1F3197A082BFBEBE016D5F27
S11324D07F4FCB01DF91CF911F910F91FF90EF9030
S11324E0DF90CF90BF90AF909F9008954FE951E057
S11324F050939C0140939B019A012850384F30938C
S11325009E0120939D0181E090E890939809809327
S1132510970930939B0920939A0930939D0920933E
S11325209C098FEF90E09093A00180939F01CA01D2
S11325300E94D6100895482F6350704081E06F398F
S1132540780710F189E06F39780738F01DC090647E
S11325508083918380E090E00895EFE9F1E0209199
S11325609D0130919E01E217F30709F189E0EF39EB
S1132570F807E8F4E617F70751F48281841721F489
S11325808081918199231CF38AEE9FEF08958081C5
S11325909181A3E0880F991FAA95E1F7E80FF91F2D
S11325A0E217F30721F081E0EF39F807F8F68AEE35
S11325B09FEF089508951F93CF93DF93182FCFE9CA
S11325C0D1E080919D0190919E01C817D907C1F176
S11325D089E0CF39D807A0F58A818117C9F4288109
S11325E0398137FF15C0C90184E0989F812D99274F
S11325F0112480FD0AC08BB394E089278BBB60E073
S1132600CE0103960E94981103C03F7B288339832F
S113261088819981B3E0880F991FBA95E1F7C80FB3
S1132620D91F80919D0190919E01C817D90741F04F
S113263081E0CF39D80720F089E0CF39D80760F29C
S1132640DF91CF911F910895089580E090E008955F
S1132650FF920F931F93CF93DF938C010E94E21399
S1132660F82E41E0682FC8010E941411EC01892B57
S113267041F40115110511F4C80104C08F2D0E9405
S11326804A18CE01DF91CF911F910F91FF900895C9
S11326900F931F93CF93DF938B0141E00E94F811B6
S11326A0EC01892B49F40115110511F4B80105C099
S11326B00E94E2130E944A18BE01CB01DF91CF9120
S11326C01F910F91089561E00E94981108950F934E
S11326D01F93CF938C010E94E213C82F41E0682F0F
S11326E0C8010E94EE0F882319F08C2F0E944A180B
S11326F080E090E0CF911F910F9108950E94E30F25
S11327000E947E150895FB018681882319F480E0D8
S113271090E008958AEE9FEF08950895843058F468
S1132720E82FFF27EE0FFF1FE555F64F60837183F7
S113273081E08093A00908950895982FE091A1095C
S1132740F091A209309751F08481891739F404C0BB
S1132750F093A209E093A109CF010895892F837012
S1132760E82FFF27EE0FFF1FEF5FF34F0190F0817B
S1132770E02D309721F08481891751F3F7CF80E061
S113278090E0089508950E949D13FC01009709F4B8
S1132790089586819781089508958091ED0B0E9494
S11327A09D13FC01009709F408958681978108958B
S11327B008959091ED0B8F3F11F08093ED0B892FCD
S11327C0992708958091ED0B99270895E091EE0BD8
S11327D0F091EF0B319780819927089581E09CE077
S11327E00895CF92DF92EF92FF920F931F93CF93AE
S11327F0DF93EC017B018A01C22E8C8133E0D32E5E
S1132800D8220E949D13892B19F08FEE9FEF39C0B7
S1132810C701AA27BB27880F991FAA1FBB1F0396AE
S1132820A11DB11DABBFFC016791662329F08C810A
S11328300E94C92D882304F1CE010E94E32B8FB797
S1132840F894ED2DFF27EE0FFF1FEF5FF34F20816C
S1132850318128833983C083D1838FBF84E8E82EF4
S1132860F12C2C2D40E062E08C810E94C718882353
S113287031F08C810E944F2D84EF9FEF02C080E0E5
S113288090E0DF91CF911F910F91FF90EF90DF9037
S1132890CF900895CF93DF93EC016115710579F022
S11328A0CB01AA27BB27880F991FAA1FBB1F02961B
S11328B0A11DB11DABBFFC018791803E18F08AEECB
S11328C09FEF12C04E835F838C836A837B8382E095
S11328D08D831882198220E040E050E0CE010E94EE
S11328E0F113992787FD9095DF91CF9108950F9368
S11328F01F9381EF9BE00E94B91913E0E1E0FCE033
S113290011921192115017FFFBCFEDEDF9E013E096
S11329101192115017FFFCCF89EB99E09093EF0BC4
S11329208093EE0B85ED99E09093D2098093D109C1
S113293080910401909105019093CC098093CB0977
S11329409093CE098093CD0913E01093D0098CEBBA
S113295091E0AA2797FDA095BA2FB695A7959795CC
S1132960879541E05CE0BC0183EA99E00E944A1447
S113297010929F09EBEAF9E011921192115017FF9E
S1132980FBCF14E000E8212F48E063EB79E082E01C
S11329900E943C3D1F910F910895CF92DF92EF92D8
S11329A0FF920F931F93CF93DF937C01EB016A0196
S11329B0122F013011F560E0762F41E050E0272F0F
S11329C033276F3179F0F901E352F64F9081842F68
S11329D0892371F05F5F6F5F440F583090F37F5F1E
S11329E0743058F36FEF70E0062F6F3FC1F42CC0C2
S11329F0942B908360527727F7CFC701AA27BB2770
S1132A00880F991FAA1FBB1F0296A11DB11DABBF42
S1132A10FC010791003E18F08AEE9FEF35C0C70114
S1132A20AA27BB27880F991FAA1FBB1FABBFFC0196
S1132A3087919691009759F041E0602F0E945110C0
S1132A408E839F83892B29F484EF9FEF1DC08E838F
S1132A509F83EA82FB820C831D8218821982212FB4
S1132A60A601B701CE010E94F113082F882351F06B
S1132A7060E08E819F810E949811802F992787FDA5
S1132A80909502C080E090E0DF91CF911F910F916B
S1132A90FF90EF90DF90CF900895CF92DF92EF9266
S1132AA0FF920F931F93CF93DF937C016B01142F3D
S1132AB0022F892BA9F062E083EB99E00E94803D0C
S1132AC0EC01009769F0212FA601BC01C7010E9407
S1132AD0CD14882341F0BE0183EB99E00E94E03DD0
S1132AE08FEF90E002C08C819927DF91CF911F91E5
S1132AF00F91FF90EF90DF90CF900895EF92FF92A7
S1132B000F93CF93DF937C01892B19F48AEE9FEF07
S1132B101FC062E083EB99E00E94803DEC010097C6
S1132B2019F484EF9FEF14C000E0202F40E050E040
S1132B30BC01C7010E94CD14082F882329F0BE01CF
S1132B4083EB99E00E94E03D802F992787FD9095C3
S1132B50DF91CF910F91FF90EF900895AF92BF92C4
S1132B60CF92DF92EF92FF920F931F93CF93DF9355
S1132B70CDB7DEB764970FB6F894DEBF0FBECDBFF6
S1132B80082F8370AA24BB24C82EDD24F601EC0D83
S1132B90FD1DEF5FF34FE080F180E114F10431F0AB
S1132BA0F7018481801711F05701F5CFE114F10486
S1132BB019F48AEE9FEF79C0F70182819381AA27E5
S1132BC0BB27880F991FAA1FBB1F0E96A11DB11DFD
S1132BD0ABBFFC014791569141155105D9F0F7015E
S1132BE0268137811091ED0B84818093ED0B8481D4
S1132BF0898382E08A8386E08F83188619861A8601
S1132C001B861C86BE016F5F7F4FC901FA010995BF
S1132C101093ED0B2FB7F894F70180819181A114E3
S1132C20B10441F4CC0CDD1C41E05CE0C40ED51EC3
S1132C30F60101C0F501808391832FBFF701248140
S1132C40203EB0F0205E822F869586958695E82FEB
S1132C50FF27E352F64F277081E090E002C0880F0F
S1132C60991F2A95E2F7982F909580818923808374
S1132C70802F0E944F2D802F0E946139802F0E9447
S1132C80A437802F0E946434C7010E94122CF701DC
S1132C90858181FD05C0B70183EB99E00E94E03D89
S1132CA0802F0E94CA1180E090E064960FB6F894D9
S1132CB0DEBF0FBECDBFDF91CF911F910F91FF906B
S1132CC0EF90DF90CF90BF90AF9008950F931F9334
S1132CD0CF93DF938C0130E0232F41E05CE0FA01D5
S1132CE0C191D191AF012097D1F08A819B81AA270C
S1132CF0BB27880F991FAA1FBB1F0896A11DB11DD2
S1132D00ABBFFC01879196918017910721F48C81C8
S1132D100E94AE15E0CF0990D881C02DE4CF3130A8
S1132D2019F02F5F2430D8F23130A9F2DF91CF911E
S1132D301F910F910895AF92BF92CF92DF92EF92BD
S1132D40FF920F931F93CF93DF93D82EC62EB42EEA
S1132D50A22E0E949D13EC01892B41F18A819B8153
S1132D60AA27BB27880F991FAA1FBB1F0E96A11D58
S1132D70B11DABBFFC01279136918E819F81E091FB
S1132D80D109F091D209D092C909C092CA09B0926E
S1132D90CF09A08201831283F092D409E092D3096F
S1132DA0D092ED0B69EC79E0F9010995DF91CF91AF
S1132DB01F910F91FF90EF90DF90CF90BF90AF9055
S1132DC008950E949D13892B19F48AEE9FEF0895AC
S1132DD080E090E008950895CF93DF93EC018A8515
S1132DE09B8582FF06C040E062E0888599850E9449
S1132DF0EE0FBE0181EF9BE00E94CB19DF91CF91D2
S1132E000895CF93DF93EC01BE0181EF9BE00E9414
S1132E10D61A009719F00E94A31BF6CFDF91CF9129
S1132E200895EF92FF921F93CF93DF9362E081EFB7
S1132E309BE00E940B1B13E0E1E0EE2EECE0FE2E83
S1132E40F701C191D1917F01209749F0BE0183EB35
S1132E5099E00E942A3E0990D881C02DF5CF1150E7
S1132E6017FFEECF62E083EB99E00E946E3E82E0B2
S1132E700E94DB12DF91CF911F91FF90EF90089594
S1132E8062E081EF9BE00E944F1B0895CF93C62F11
S1132E900E949D13FC01892B19F48AEE9FEF07C051
S1132EA085818F70C07F8C2B858380E090E0CF91EB
S1132EB00895CF93DF93EB010E949D13FC01892BAE
S1132EC019F48AEE9FEF05C08581807F888380E0B6
S1132ED090E0DF91CF9108958F929F92AF92BF922D
S1132EE0CF92DF92EF92FF920F931F93CF93DF93D2
S1132EF07894F8948091A0098823B1F07894809113
S1132F009F098130B1F31092A00913E0CBEAD9E014
S1132F10E881F981309719F01882198209951150C6
S1132F20229617FFF5CF99C08091F10B882309F4FD
S1132F308DC0789480919F098130D9F2AA24BB2452
S1132F401FEF912EC2E08C2E81EF9BE00E94211A8C
S1132F50EC01892B09F481C088810E949D138C01A6
S1132F608E81833011F4A884B9848A859B8583FD7E
S1132F709980CE010E948D340115110509F44CC0CD
S1132F806A857B85872F992721E030E0822393236C
S1132F9082179307C9F4F80185819927A6E09695CD
S1132FA08795AA95E1F7817090708217930761F075
S1132FB02A813B81809104019091050128173907EA
S1132FC019F02F5F3F4F41F540E050E0F801828156
S1132FD09381AA27BB27880F991FAA1FBB1F0E9690
S1132FE0A11DB11DABBFFC01C790D690F801E680CE
S1132FF0F78062FF06C08881682F888599850E94C2
S1133000EE0FF80184818093ED0BBE01C701F60138
S11330100995882309F4882EA114B10421F0C5016F
S11330200E94A31B0FC0FFEF9F1661F0882D992704
S11330307C018E0124E143E062E0892D0E94C718DF
S113304087FF0BC0CE010E94A31B07C085B7806217
S113305085BF7894889500000000A8954ACFCF9347
S1133060DF9381E00E94BC3E82E00E94BC3E83E08C
S11330700E94BC3ECFEFDFEFA895209749F487E08C
S11330800E94BC3E88E00E94BC3E89E00E94BC3E97
S11330902197F2CF0E942F18992787FD90950895C4
S11330A0BF92CF92DF92EF92FF920F931F93CF9331
S11330B0D82EC62EC42FB22E0E948B1BFC01892B46
S11330C019F484EF9FEF1EC08091040190910501D3
S11330D082839383D082C6838091040190910501F9
S11330E084839583C18283E08783B48605871687AA
S11330F08BEFE822FF24E286F386CF010E94EC16D0
S113310080E090E0CF911F910F91FF90EF90DF90BE
S1133110CF90BF9008959F92AF92BF92CF92DF92CB
S1133120EF92FF920F931F93CF93B82E962EC42F36
S1133130A22E0E948B1BFC01892B49F4E2FE04C0E1
S113314060E0C8010E94981184EF9FEF15C0809140
S113315004019091050182839383B082C683C48263
S1133160D5829182A78200871187E286F386CF01F8
S11331700E94EC1680E090E0CF911F910F91FF9098
S1133180EF90DF90CF90BF90AF909F900895CF9233
S1133190DF92EF92FF920F931F93762F642F922F5B
S11331A0C0900401D0900501292F462F672F0E945B
S11331B08B18992787FD90951F910F91FF90EF90A1
S11331C0DF90CF9008959F92AF92BF92CF92DF92FB
S11331D0EF92FF920F931F93CF93982EA62EB42EA7
S11331E069010E94E213C82F780186012B2D4A2D14
S11331F0682F892D0E94C718882339F08C2F0E94CC
S11332004A18992787FD909502C080E090E0CF91FD
S11332101F910F91FF90EF90DF90CF90BF90AF90F0
S11332209F9008950F931F93CF93DF93282FFB0153
S11332308681833019F4C085D18501C0EB018A856C
S11332409B8582FF11C040E0622F888599850E948A
S1133250EE0F088519851F82188619868A859B8535
S11332608B7F8A879B8712C08F8140E0622F9927CA
S11332700E9414118C01892B49F08F81992728858C
S11332803985AC01B901C8010E945659C801DF91C2
S1133290CF911F910F910895FF920F931F93CF9396
S11332A0DF938C010E94E213F82EB8010E941219D8
S11332B0EC01892B19F48F2D0E944A18CE01DF915D
S11332C0CF911F910F91FF900895AF92BF92CF922B
S11332D0DF92EF92FF920F931F93CF93DF93B82E59
S11332E0A62E69017A010E948B1BEC010E94E21355
S11332F0282F209731F40E944A18992787FD90952A
S113330020C080910401909105018A839B83B88237
S1133310AE8280910401909105018C839D83298361
S113332084E08F83E885F985C082D182E282F382CA
S11333300B7F10700A871B87CE010E94EC1680E079
S113334090E0DF91CF911F910F91FF90EF90DF906C
S1133350CF90BF90AF9008950F9300E024E044E134
S113336061EE79E08BE00E943C3D80E090E00F91BB
S11333700895FC0110821382128211821482158234
S11333801682178210861186128613861486158675
S1133390168617860895CF93DF93DC01EB012FB7D0
S11333A0F8941A8A1B8A8A859B8586FF16C0FD01BC
S11333B084819581892B19F46483758307C0FD0189
S11333C086819781FC01628B738BFD01C683D78351
S11333D0FD0183818F5F83832DC087FF16C0FD01AC
S11333E080859185892B19F46087718707C0FD0159
S11333F082859385FC01628B738BFD01C287D38721
S1133400FD0182818F5F828315C0FD0184859585CE
S1133410892B19F46487758707C0FD018685978514
S1133420FC01628B738BFD01C687D787FD01818107
S11334308F5F81838C918F5F8C932FBFDF91CF91AE
S11334400895CF93DF93FC012FB7F894A481B5813D
S1133450109749F0ED018A899B8984839583838140
S1133460815083831EC0A085B185109749F0ED017A
S11334708A899B898087918782818150828311C048
S1133480A485B585109749F0ED018A899B898487C5
S1133490958781818150818304C02FBF80E090E0B3
S11334A005C08081815080832FBFCD01DF91CF91F2
S11334B00895AF92BF92CF92DF92EF92FF920F9353
S11334C01F93CF93DF937C018B01DA01EC01E88138
S11334D0F9816F01BF01309709F45BC09C91808131
S11334E0981709F051C0ED0199818181981709F06D
S11334F04BC02A813B81828193812817390709F0C7
S113350043C02C813D818481958128173907E1F5D9
S11335109E8186819817C1F54F8187814817A1F54F
S113352050E0541778F420853185A884B984E501E6
S113353099915E01E90189919E01981729F55F5FD0
S11335405417A8F3EC15FD0559F482899389D70122
S11335508D939C930097B1F4E8018883998312C0FA
S1133560D8018D919C911197E817F90731F4EB017B
S11335701A8A1B8A6D937C9305C082899389EB0117
S11335808A8B9B8BCF0107C0BF010288F389E02D92
S1133590A2CF80E090E0DF91CF911F910F91FF9037
S11335A0EF90DF90CF90BF90AF900895FF920F936C
S11335B01F93CF93DF93EC018B018881882319F447
S11335C080E090E022C0FFB6F894CE010696AB01ED
S11335D0BC01CE0104960E94591A9C01892B29F042
S11335E0888181508883FFBE0FC0CE010E96A8014A
S11335F0BC01CE010C960E94591A9C01892B19F02A
S1133600888181508883FFBEC901DF91CF911F91CA
S11336100F91FF900895FF920F931F93CF93DF9321
S11336208C01F62EFC01C481D581209769F08A852E
S11336309B8582FF05C0688579858F2D0E949B122A
S11336400A88DB89C02DF1CFF801C085D185209788
S113365069F08A859B8582FF05C0688579858F2DF1
S11336600E949B120A88DB89C02DF1CFF801C48522
S1133670D585209771F08A859B8582FF05C0688572
S113368079858F2D0E949B120A88DB89C02D209793
S113369091F7DF91CF911F910F91FF9008950F93B0
S11336A01F93CF93DF938C01FC01C481D5812097B4
S11336B049F0BE0181EE99E00E942A3E0A88DB8926
S11336C0C02DF5CFF801C085D185209749F0BE0102
S11336D081EE99E00E942A3E0A88DB89C02DF5CF4D
S11336E0F801C485D585209751F0BE0181EE99E09B
S11336F00E942A3E0A88DB89C02D2097B1F7DF910A
S1133700CF911F910F910895BC0181EE99E00E9421
S11337102A3E08950895CF93CFB7F8946BE081EED5
S113372099E00E94803DFC01009721F4CFBF80E026
S113373090E007C0CFBF0C968087918712861386CE
S1133740CF01CF9108951F93CF93DF93EC018A8526
S11337509B8582FF05C060E0888599850E94981149
S11337601FB7F894BE0181EE99E00E94E03D1FBFAF
S1133770DF91CF911F910895DF92EF92FF920F9303
S11337801F93CF93DF93EC01F62ED42E2A853B852D
S1133790C90133E0969587953A95E1F78095909520
S11337A08C010170107080FD1EC022FF0CC060E00F
S11337B0888599850E9498118A859B858B7F8A8745
S11337C09B8708871987FF2011F482E001C080E0FD
S11337D099277C018E0124E143E06D2D89810E94AB
S11337E0C71887FF03C0CE010E94A31BDF91CF91AE
S11337F01F910F91FF90EF90DF9008958FEF9FEF4F
S113380008958AEE9FEF08951F93CF93DF93EC0101
S113381010E08A819B810E941B402A853B85882376
S113382029F438602A873B8711E003C0377F2A8751
S11338303B872A853B85C9019B7F8A879B87112308
S113384021F492608A879B8703C0397F2A873B874C
S1133850812F9927DF91CF911F910895AF92BF9245
S1133860CF92DF92EF92FF920F931F93CF93DF9348
S1133870CDB7DEB728970FB6F894DEBF0FBECDBF25
S11338807C015E010894A11CB11C88E0D5011D9245
S11338908A95E9F7DD248091040190910501F701EF
S11338A0228133818217930721F4C7010E94EC1609
S11338B0A8C02F5F3F4F21F1F7018285938584E0F3
S11338C0989F812D9927112480FD1AC0C7010E9459
S11338D0041C8823A9F4B7018091EF099091F009A1
S11338E00E944600813021F4C7010E94A31B89C0B5
S11338F0882331F444E161E0C7010E94BC1B81C00C
S1133900F70182859385892F9927829586958770FB
S113391080FF08C0828193818F5F9F4F19F0C70198
S11339200E94041CF70122853385890100701E71F1
S11339300115110529F4C7010E94A31BC80174C015
S1133940C901892F9927869580FF04C0E982FA82EC
S113395041E0D42EC901892F9927869586958695AD
S113396080FF40C0DD2019F4ED82FE823BC00E943E
S11339708B1B8C01892B61F1F701878140E062E0A8
S113398099270E9414116C01892B49F4F70187814E
S1133990882329F0C8010E94A31BF6011AC084E100
S11339A0D801F70101900D928A95E1F7F801C086DC
S11339B0D18682859385846082879387F701878186
S11339C0992720853185AC01B901C6010E94565959
S11339D0F801ED83FE833097B9F082859385877F64
S11339E082879387C7010E94DE3489819A81009778
S11339F011F00E94460A8D819E81009711F00E9469
S1133A003D3F80E090E010C083E0F82E8501D801AE
S1133A108D919D918D01009711F00E94A31BFA9442
S1133A20F7FEF5CF84EF9FEF28960FB6F894DEBF2C
S1133A300FBECDBFDF91CF911F910F91FF90EF90FB
S1133A40DF90CF90BF90AF9008959F92AF92BF92B6
S1133A50CF92DF92EF92FF920F931F93CF93B82EE2
S1133A60962EC42FA22E0E948B1BFC01892B49F495
S1133A70E2FE04C060E0C8010E94981184EF9FEF49
S1133A8016C0C282D382B082C68380910401909111
S1133A900501848395839182A78200871187E2863A
S1133AA0F386CF010E942E1C992787FD9095CF9114
S1133AB01F910F91FF90EF90DF90CF90BF90AF9048
S1133AC09F9008950F931F93CF93DF93EC010E946F
S1133AD08B1B8C01892B79F48A859B8582FF08C016
S1133AE060E0888599850E949811088719871F824C
S1133AF084EF9FEF15C084E1D801FE0101900D927F
S1133B008A95E1F71F82188619868A859B858B7FA3
S1133B108A879B87C8010E942E1C992787FD909550
S1133B20DF91CF911F910F9108955F926F927F92D1
S1133B308F929F92AF92BF92CF92DF92EF92FF92B9
S1133B400F931F93CF93582E662E742E490158015C
S1133B500E94E213C82F670175018401272D462DA9
S1133B60682F852D0E94251D882339F08C2F0E94F3
S1133B704A18992787FD909502C080E090E0CF9184
S1133B801F910F91FF90EF90DF90CF90BF90AF9077
S1133B909F908F907F906F905F9008951F93182F40
S1133BA00E94E21320E0412F682F84E10E9426291D
S1133BB0882319F08AEE9FEF02C080E090E01F9105
S1133BC008958CEC91E0AA2797FDA095BA2FB6959D
S1133BD0A795979587954FEE59E0BC0187EE99E03C
S1133BE00E944A140895E82F892F9927982FE131CC
S1133BF078F4FF27EE0FFF1FE55EF54F0190F0818B
S1133C00E02D309711F4CF0108958681891719F0BA
S1133C1080E090E0089581E090E008950895CF93C6
S1133C20C42F9C0143E0369527954A95E1F7582F18
S1133C30577081E090E0982F052E01C0990F0A94E7
S1133C40EAF7583018F56115710501F1A22FBB2769
S1133C50E091160AF091170A352F3F5F492F440F60
S1133C6061507040CC2329F0EA0FFB1F8081892B1F
S1133C7005C0EA0FFB1F9095808189238083532F11
S1133C80942F383018F46115710511F72F5F809166
S1133C90180A281780F56115710569F191E050E063
S1133CA06115710501F1A22FBB27E091160AF0916D
S1133CB0170A352F3F5F492F440F61507040CC23C2
S1133CC029F0EA0FFB1F8081892B05C0EA0FFB1F37
S1133CD09095808189238083532F942F383018F452
S1133CE06115710511F72F5F8091180A281718F4D0
S1133CF06115710599F6CF91089580913C0A9091D0
S1133D003D0A892BB9F440E06FE080E091E00E9425
S1133D10141190933D0A80933C0A892B19F484EF83
S1133D209FEF089510923E0A10923F0A1092400AA3
S1133D301092410A80E090E008950895AF92BF92F6
S1133D40CF92DF92EF92FF920F931F93CF93DF9363
S1133D50DC01CB015A016901E12C5FEFF52E5FEF25
S1133D60052F5FEF152FE822F9220A231B239070F9
S1133D70A070B070EC0160913E0A70913F0A80918E
S1133D80400A9091410A6E157F058007910769F1F9
S1133D906115710581059105B1F040E051E00E9483
S1133DA000FE80913E0A90913F0AA091400AB09192
S1133DB0410A20E031E040913C0A50913D0ABC01A7
S1133DC0CD010E9401FEE0923E0AF0923F0A009368
S1133DD0400A1093410A20E031E040913C0A50919E
S1133DE03D0AC801B7010E94C054C114D10481F036
S1133DF0D5019601E0913C0AF0913D0AEC0FFD1FBC
S1133E008D9180832150304021962115310591F701
S1133E10DF91CF911F910F91FF90EF90DF90CF90A2
S1133E20BF90AF900895DF92EF92FF920F931F938C
S1133E30CF93DF937C01DD24EBE1FAE08191919152
S1133E40892B21F0D3948FE08D15C0F780E1D8162B
S1133E5009F47BC041E06FE088E090E00E945110DB
S1133E60EC01892B09F471C000E00E947D1E8823B7
S1133E7071F124EF3FEF4FEF5FEF5AC0802F992786
S1133E808901F3E0000F111FFA95E1F7040F111DEA
S1133E90081B190B0F5F1F4F41E0BC01C8010E94B2
S1133EA00F1EC801AA2797FDA095BA2FBA2FA92FD4
S1133EB0982F88272091120A3091130A4091140AEE
S1133EC05091150A280F391F4A1F5B1F31C0C701C3
S1133ED0AA27BB2781509F4FAF4FBF4F892F9A2FDF
S1133EE0AB2FBB27982F502F7091180A0717E0F4B7
S1133EF0A091160AB091170A61E0252F3327FD011E
S1133F00E20FF31FE08140E08E2F862311F000E0E2
S1133F1001C00F5F091709F4B1CF4F5F660F483036
S1133F2098F35F5F571740F320E030E040E050E043
S1133F30288339834A835B83211531054105510563
S1133F4039F460E0CE010E9498118FEF9FEF19C001
S1133F50EC82FD822D2D3327F901E20FF31FE55E7C
S1133F60F54FC083D18380913B0A8F5F80933B0AD6
S1133F708E831F8280913B0A9927982F8827822B52
S1133F80932BDF91CF911F910F91FF90EF90DF90D2
S1133F9008958F929F92AF92BF92CF92DF92EF9249
S1133FA0FF920F931F93CF93DF935B016C01480142
S1133FB0E9010E947D1E882319F084EF9FEF4FC012
S1133FC0C701AA27BB27A80EB91ECA1EDB1EEE24F2
S1133FD0FF24D601C5019070A070B07000E011E01C
S1133FE0081B190B0815190580F49801AE01C601C8
S1133FF0B5010E949E1E7801C801AA27BB27A80EFE
S1134000B91ECA1EDB1EC00FD11F84010E191F0961
S113401081E001301807C0F020E031E0AE01C601B4
S1134020B5010E949E1EA0E0B1E0EA0EFB1E005006
S1134030114080E091E0A0E0B0E0A80EB91ECA1ED5
S1134040DB1EC050DF4FE4CF8E149F0431F0980183
S1134050AE01C601B5010E949E1E80E090E0DF9192
S1134060CF911F910F91FF90EF90DF90CF90BF9071
S1134070AF909F908F900895BF92CF92DF92EF926E
S1134080FF920F931F93CF93DF93B62E6A01E9013A
S11340907801182F0E94F31D882319F48EEF9FEFE7
S11340A015C0E12FFF27EE0FFF1FE55EF54F0190CE
S11340B0F081E02D8E0196014B2D6081718182810A
S11340C093810E94C91F992787FD9095DF91CF9115
S11340D01F910F91FF90EF90DF90CF90BF900895C4
S11340E0AF92BF92CF92DF92EF92FF920F931F9302
S11340F0CF93DF935B016C01C701AA27BB27A80EEE
S1134100B91ECA1EDB1EE901B801EE24FF24A60174
S113411095012070D601C5019070A070B0708C011B
S113412080913E0A90913F0AA091400AB091410AC1
S113413082179307A407B507F9F420E031E0201BA8
S1134140310B17C061157105B9F0E0913C0AF0918B
S11341503D0AE00FF11F80818993615070400894FB
S1134160A11CB11CC11CD11C0894E11CF11C0F5FE3
S11341701F4FE216F30630F36115710531F09B0110
S1134180AE01C601B5010E94C05480E090E0DF9109
S1134190CF911F910F91FF90EF90DF90CF90BF9040
S11341A0AF900895BF92CF92DF92EF92FF920F9358
S11341B01F93CF93DF93B62E6A01E9017801182F7C
S11341C00E94F31D882319F48EEF9FEF15C0E12F91
S11341D0FF27EE0FFF1FE55EF54F0190F081E02D04
S11341E08E0196014B2D60817181828193810E94A1
S11341F07020992787FD9095DF91CF911F910F91A2
S1134200FF90EF90DF90CF90BF90089580913C0A8B
S113421090913D0A892B99F180913E0A90913F0A31
S1134220A091400AB091410A40E051E0BC01CD01A7
S11342300E9400FE80913E0A90913F0AA091400A9C
S1134240B091410A20E031E040913C0A50913D0A8E
S1134250BC01CD010E9401FE60E080913C0A909176
S11342603D0A0E94981110923D0A10923C0A109245
S11342703E0A10923F0A1092400A1092410A80E0CE
S113428090E008952091110A203118F08AEE9FEFF2
S11342900895E22FFF27EE0FFF1FEF50F64F8083A4
S11342A091832F5F2093110A80E090E00895089590
S11342B00F931F93CF93DF938C0160E0CBE1DAE09F
S11342C0E991F991309719F1878180FF20C020810D
S11342D03181428153815695479537952795C90178
S11342E0AA27BB27880F991FAA1FBB1F0896A11DC9
S11342F0B11DABBFFC01879196918017910711F412
S1134300C90102C080E090E09C01892BE9F46F5F51
S11343106031B0F260E04091110A6417D0F4C1EF4B
S1134320D9E029913991C901AA27BB27880F991F80
S1134330AA1FBB1F0896A11DB11DABBFFC0187912D
S113434096910817190711F4C90105C06F5F641726
S113435040F380E090E0DF91CF911F910F91089599
S1134360CF93C82F0E94F31D882319F48EEF9FEF7B
S11343700EC0EC2FFF27EE0FFF1FE55EF54F0190F7
S1134380F081E02D87818160878380E090E0CF9188
S11343900895CF93C82F0E94F31D882329F460E069
S11343A070E080E090E00DC0EC2FFF27EE0FFF1FC0
S11343B0E55EF54F0190F081E02D6081718182818D
S11343C09381CF9108950E94D65708958F929F921A
S11343D0AF92BF92CF92DF92EF92FF920F931F930F
S11343E0CF93DF938C01C82F0E94F31D882319F407
S11343F08EEF9FEF5BC0DD27FE01EC0FFD1FE55E36
S1134400F54F80809180F401878180FF14C0C8013A
S11344100E94E321009779F0AA27BB27880F991FF0
S1134420AA1FBB1F0896A11DB11DABBFFC0187913C
S113443096910E946616F401C080D180E280F380D8
S1134440A480B5808091120A9091130AA091140A55
S1134450B091150AA7019601281B390B4A0B5B0B77
S1134460032F142F252F3327C501AA27BB278150DB
S11344709F4FAF4FBF4F892F9A2FAB2FBB27992741
S113448040E0BC01C8010E940F1EA501C701B6018E
S11344900E9400FECC0FDD1FC55ED54F1882198225
S11344A060E0C4010E94981180E090E0DF91CF9118
S11344B01F910F91FF90EF90DF90CF90BF90AF903E
S11344C09F908F9008950E9491549B01AC0160933A
S11344D0120A7093130A8093140A9093150A80E0C9
S11344E090EEA1E0B0E0821B930BA40BB50B892FD7
S11344F09A2FAB2FBB2790931A0A8093190A079619
S113450023E0969587952A95E1F78093180A41E070
S11345106FE099270E9451109093170A8093160A0E
S113452090E08091180A981748F4E091160AF091E7
S1134530170AE90FF11D10829F5FF3CF9FE0EBE1B3
S1134540FAE011921192915097FFFBCF10923B0A1F
S113455010923D0A10923C0A10923E0A10923F0AB1
S11345601092400A1092410A0895AF92BF92CF92DE
S1134570DF92EF92FF920F931F935C016B017A011C
S113458089010E94E2139701A601682FC5010E94C8
S1134590D220992787FD90951F910F91FF90EF905E
S11345A0DF90CF90BF90AF9008956F927F928F92DB
S11345B09F92AF92BF92CF92DF92EF92FF920F93AE
S11345C01F93CF93DF93682E5B01EA01490180E1D9
S11345D00E94C93B6C01892B19F48AEE9FEF78C0C5
S11345E0EF9646E0D695C7954A95E1F727968E0152
S11345F033E0169507953A95E1F72797E02EFF24C7
S113460040E060E1C7010C960E941411DC010097A0
S113461019F484EF9FEF5CC0FC016282A186B2862C
S113462003878D929C921197148217821086F6014B
S113463080819181FD01858396838481801730F484
S11346409FEF3C96802F91938150E9F7AE0147701C
S113465050704115510561F0EA0EFB1E81E090E0B7
S113466002C0880F991F4A95E2F78150E7018B87B2
S1134670FD011382C091430AD091440A209789F026
S1134680FE0182E0E6018B8387819085892B21F0EE
S11346900780F085E02DF8CFA783B08780E090E015
S11346A017C0F6011382B093440AA093430A0E94F0
S11346B0CB3687709070982F882780509F4FAA27F9
S11346C0BB279C01AD0161E080E10E942A31CE014B
S11346D0DF91CF911F910F91FF90EF90DF90CF90DA
S11346E0BF90AF909F908F907F906F900895E091CE
S11346F0430AF091440A0780F085E02DF093440AC0
S1134700E093430A3097B9F06185728580E10E9495
S1134710C93BFC0113820E94CB3687709070982F9E
S1134720882780509F4FAA27BB279C01AD0161E0D9
S113473080E10E942A3108950F931F93CF93DF9352
S1134740EC018B0169857A8580E10E94C93BDC011B
S1134750088319831B821F8218868091430A9091D3
S1134760440A009789F09C0182E0FD018383F901EA
S113477087819085892B21F0F90127813085F7CF36
S1134780F901C783D08716C0D093440AC093430A63
S1134790FD0113820E94CB3687709070982F882772
S11347A080509F4FAA27BB279C01AD0161E080E1A7
S11347B00E942A31DF91CF911F910F910895CF93D9
S11347C0C62FFC016185728580E10E94C93BFC0112
S11347D0892B61F0C13031F460E1808191810E94C4
S11347E0062104C0808191810E94E621CF91089521
S11347F060E08091530A9091540A0E94981110929B
S1134800540A1092530A62E080E10E9440300895F5
S11348100F931F93CF93DF938B01E091430AF091A1
S1134820440A309789F18185928586179707F1F4B8
S1134830EF010E94772360E0CE010E949811E0917D
S1134840530AF091540A309771F080819181801756
S1134850910749F40E94F82306C02783308760E05B
S1134860CE010E94981180E090E010C0C781D085ED
S1134870209751F089859A852F8138858017910773
S113488061F3FE01E901F4CF8AEE9FEFDF91CF914E
S11348901F910F910895FC0190E02281921750F42A
S11348A033968191882319F080E090E008959F5F0A
S11348B09217B8F381E090E008950895EF92FF9283
S11348C00F931F93E091430AF091440A74E0E72E9A
S11348D0F12C8F012CE0422F60E182810E94C718E5
S11348E0182F882361F081E08093420A20E034E0AD
S11348F040E050E0682F80E10E942A3110C0E0912E
S1134900430AF091440A6185728580E10E94C93BA3
S113491021E0FC0123831093420A0E9477231F9114
S11349200F91FF90EF900895AF92BF92CF92DF92D4
S1134930EF92FF920F931F93CF93DF93CDB7DEB720
S113494060970FB6F894DEBF0FBECDBF6B01FB01BD
S11349508681082F11270330110509F4DBC20430C6
S113496011054CF40115110509F4DEC202301105DC
S113497009F4CEC1F9C20032110509F4E5C00132CF
S1134980110509F0F1C2A091530AB091540A10978D
S113499021F1FB01408551852D913C911197FA013C
S11349A08281938128173907C1F420813181F9016B
S11349B013E0F695E7951A95E1F7EA0FFB1F2770C8
S11349C0307081E090E002C0880F991F2A95E2F7C9
S11349D0982F90958381892383838091430A9091B2
S11349E0440A009709F4C2C20E94CB3687709070C3
S11349F0982F882780509B4EAA27BB279C01AD0186
S1134A0061E080E10E946331E091430AF091440A3D
S1134A101382F601E084F184A091430AB091440A20
S1134A20F70162817381FD01818592856817790799
S1134A3009F04BC180E10E94C93BDC01892B19F4C8
S1134A408AEE9FEF44C14091430A5091440AF70112
S1134A5000811181F80163E0F695E7956A95E1F725
S1134A60E40FF51F8485992798012770307002C0E0
S1134A70959587952A95E2F7809590959C012170EC
S1134A80307080FD22C10115110551F0FA018485B1
S1134A9080FF06C0FD018281882311F4C90117C17A
S1134AA056E0000F111F5A95E1F7C701049620E460
S1134AB030E0AC0160E18D919C910E943C208130FA
S1134AC051F4B60180E10E9412199093500A809328
S1134AD04F0A7C0103C0882309F0F7C08091430A80
S1134AE09091440AF70120813181F90143E0F69560
S1134AF0E7954A95E1F7E80FF91F2770307081E0D8
S1134B0090E002C0880F991F2A95E2F7982F90959C
S1134B108485892384878091430A9091440A00976D
S1134B2009F4D3C009960E944B24882309F4CDC00C
S1134B30E091430AF091440A138261E080E10E940B
S1134B4040300E945E24C1C00E948C35F60122814F
S1134B5033812817390709F0BEC00091530A109118
S1134B60540AA085B1850115110509F055C0ED90D1
S1134B70FC90B70180E10E94C93BDC01009711F170
S1134B80FC018281882311F0980126C0E091430A38
S1134B90F091440A309741F0818592858E159F05E6
S1134BA019F4848580FD0EC000E010E020E130E0BF
S1134BB0AE014F5F5F4F60E18D919C910E94D220C6
S1134BC0882319F02AEE3FEF07C08D819E81890F5B
S1134BD08093650A20E030E0222309F076C020E0CB
S1134BE032E040E050E062E080E10E9463318823DB
S1134BF081F4B60180E10E9412199093540A8093C3
S1134C00530AF6018481958190934E0A80934D0A4C
S1134C102DC084EF9FEF5BC0F801208131818D911D
S1134C209C9111972817390709F540E082814817AC
S1134C30E8F4FD0152814517C8F4139620E030E0F2
S1134C40E091530AF091540AE20FF31F83819D917E
S1134C50892B83834F5F2F5F3F4FE091530AF0917D
S1134C60540A8281481710F4451750F3E091430A1F
S1134C70F091440A309749F1A091530AB091540A33
S1134C80218532858D919C91119728173907E9F474
S1134C9020E0FD0182812817C0F4422F5527A40F7C
S1134CA0B51F8091430A9091440A480F591FFD0192
S1134CB09381FA01848580958923FD0183832F5F85
S1134CC0A091530AB091540AE4CF80E090E0992770
S1134CD087FD90954BC18091430A9091440A0097B7
S1134CE009F444C10E94CB3687709070982F8827AE
S1134CF080509B4EAA27BB279C01AD0161E080E157
S1134D000E946331E091430AF091440A138209C17D
S1134D10FB01A085B185AC90F1E0AF1609F051C05C
S1134D204091420A442309F049C0E091430AF091BA
S1134D30440A309709F4F5C083818F5F8383E0913F
S1134D40430AF091440A83818430C0F5B38483E03C
S1134D50B80EEB2CFF2460E1C7010E9414118C01F2
S1134D60892BD9F08091430A9091440A0996A701AE
S1134D70BC01C8010E945659E091430AF091440ACB
S1134D80808191816C0184E0E82E8EE3F82E2B2D36
S1134D9040E260E1862F0E94251D0E94CB36877079
S1134DA09070982F882780509B4EAA27BB279C0180
S1134DB0AD016A2D80E10E946331B3C00E945E247C
S1134DC0B0C0E2E0AE1609F0ACC08091660A823051
S1134DD008F0A7C0E091530AF091540A309729F4DF
S1134DE06A2D80E10E9440309CC06081718180E125
S1134DF00E94C93B7C01892B09F489C08091510A26
S1134E009091520A892B09F08CC090E0E091530AEA
S1134E10F091540A8281981748F4282FDF011396E1
S1134E208D91882319F49F5F9217D0F3828198178C
S1134E3029F46DC020959223938314C0892F992758
S1134E408C01A3E0000F111FAA95E1F721E030E0E7
S1134E50E80FF91F9381822F892361F73F5F220FA7
S1134E603830C8F3030F111D40E060E184E490E0A2
S1134E700E9414115C01009709F441C0FC010083F5
S1134E801183E091530AF091540A80819181F501D4
S1134E9082839383F6E0000F111FFA95E1F7C501B1
S1134EA0049620E430E0AC0160E1F7018081918157
S1134EB00E94D220813029F4B092520AA092510A61
S1134EC007C0882329F060E0C5010E94981117C02B
S1134ED080914D0A90914E0A6C01ECE0EE2EEEE3C7
S1134EE0FE2E850124E441E260E1862F0E94251D07
S1134EF0882329F48091660A8F5F8093660A8091E3
S1134F00530A9091540A0E944B24882351F00E9422
S1134F10F82307C08091660A882319F08150809392
S1134F20660A80E090E022C01093540A0093530A6A
S1134F301093520A0093510A1093500A00934F0A97
S1134F401092660A60E480E10E94461720E042E085
S1134F5060E185E59AE00E94BF3041E0642F80E182
S1134F600E946330C80102C08AEE9FEF60960FB6BC
S1134F70F894DEBF0FBECDBFDF91CF911F910F918B
S1134F80FF90EF90DF90CF90BF90AF90089584EEA4
S1134F9091E0AA2797FDA095BA2FB695A795979566
S1134FA0879540E050E0BC0185E49AE00E944A14F1
S1134FB080E090E0089580E090E008950F931F93BF
S1134FC0CF93FC01062F842F122FC42F421780F594
S1134FD09F0144275527220F331F441F551F682F55
S1134FE0772793E0660F771F9A95E1F7695F7F4F04
S1134FF0CB01AA27BB2767507040820F931FA41FC1
S1135000B51FABBFFC018791801769F4CB01AA27B8
S1135010BB27280F391F4A1F5B1F569547953795A5
S11350202795C90107C0CF5F685F7F4FC117F0F2B2
S113503080E090E0CF911F910F9108951F93CF933B
S1135040DF93162FC0E0D0E00E949D13FC01892B52
S113505019F182819381AA27BB27880F991FAA1F60
S1135060BB1F0496A11DB11DABBFFC013791019676
S1135070A11DB11DABBFFC012791230F0B96A11DF0
S1135080B11DB695A79597958795432F612F0E94DB
S1135090DE27EC01892B11F4CE010BC0CE01AA2727
S11350A0BB27880F991FAA1FBB1FABBFFC018791A9
S11350B09691DF91CF911F910895CF93DF93FC01D7
S11350C0DB0190818C91981781F49181EB018981A6
S11350D0981759F492818A81981739F493818B81B6
S11350E0981719F481E090E002C080E090E0DF912D
S11350F0CF9108957F928F929F92AF92BF92CF9259
S1135100DF92EF92FF920F931F93CF93DF93CDB76C
S1135110DEB728970FB6F894DEBF0FBECDBF6C0183
S1135120862F142FB22E8824992477240E949D134D
S1135130FC01892B09F472C082819381AA27BB27C1
S1135140880F991FAA1FBB1F0496A11DB11DABBFD9
S1135150FC0137910196A11DB11DABBFFC01279144
S1135160230F0B96A11DB11DB695A795979587950D
S1135170432F612F0E94DE274C01009709F44EC093
S11351807C0100271127EE0CFF1C001F111FA60134
S113519066277727440F551F661F771F2B2D33274C
S11351A0A3E0220F331FAA95E1F72E5E3F4F5E0165
S11351B00894A11CB11CCC24DD2482E090E0C80E2C
S11351C0D91EC601AA27BB278E0D9F1DA01FB11F84
S11351D0ABBFFC018791F5018083C901AA27BB27D6
S11351E0840F951FA61FB71FABBFFC018791F50164
S11351F0848373940894C108D1080894A11CB11C39
S11352002F5F3F4FF3E0F715C0F6BE016B5F7F4F92
S1135210CE0101960E945D28882311F0C40102C0CA
S113522080E090E028960FB6F894DEBF0FBECDBFA5
S1135230DF91CF911F910F91FF90EF90DF90CF906E
S1135240BF90AF909F908F907F900895CF92DF9200
S1135250EF92FF920F931F93CF93DF93C62ED42E1A
S1135260C22F0E949D13FC01892B29F40E942F1840
S11352708AEE9FEF35C002811381E680F7802C2FE0
S11352804D2D6C2DC8010E947A28DD27009739F036
S1135290CC0FDD1FCE0DDF1D888399831FC0FE0157
S11352A0EC0FFD1FEE0DFF1DC801AA27BB27880FB9
S11352B0991FAA1FBB1F73E0CC0FDD1F7A95E1F77E
S11352C060969E0144275527820F931FA41FB51F84
S11352D0B695A795979587958083918380E090E014
S11352E0DF91CF911F910F91FF90EF90DF90CF90BE
S11352F008953F924F925F926F927F928F929F9206
S1135300AF92BF92CF92DF92EF92FF920F931F93CF
S1135310CF93DF935C01FC012681378182819381E5
S1135320AA27BB27880F991FAA1FBB1F0496A11D7C
S1135330B11DABBFFC0177900196A11DB11DABBFA0
S1135340FC0137906624671408F06CC050E1452EC8
S1135350512CC0E0D0E06901F50182809380740192
S113536000271127EE0CFF1C001F111F6696CE01AB
S1135370AA27BB278E0D9F1DA01FB11FABBFFC0129
S113538067912196CE01AA27BB2767978E0D9F1D93
S1135390A01FB11FABBFFC019791F5018481681771
S11353A0A1F420E130E040E050E0E20EF31E041FDF
S11353B0151F16950795F794E794272D230D472D70
S11353C0692FC7010E94DE2707C06F3F39F0262DE1
S11353D0492FC4010E947A280097A1F4F501828123
S11353E09381AA27BB27880F991FAA1FBB1F92016D
S11353F044275527820F931FA41FB51FB695A79561
S113540097958795F60180839183639422E030E039
S1135410C20ED31E289648E050E0440E551E671471
S113542008F49ACFDF91CF911F910F91FF90EF90E5
S1135430DF90CF90BF90AF909F908F907F906F90B0
S11354405F904F903F9008952F923F924F925F92BA
S11354506F927F928F929F92AF92BF92CF92DF9280
S1135460EF92FF920F931F93CF93DF93CDB7DEB7E5
S11354706C970FB6F894DEBF0FBECDBF89879A87AD
S11354806B874C872D870E94EE138E879F87298513
S11354903A85C901AA27BB27880F991FAA1FBB1FDA
S11354A04B85242F332713E0220F331F1A95E1F77E
S11354B02A5F3F4F44275527820F931FA41FB51F10
S11354C0ABBFFC016791698B188A7889E72FFF27A6
S11354D0EE0FFF1F8E859F85E80FF91FA080B18016
S11354E0A114B10409F450C1F50182819381AA2762
S11354F0BB27880F991FAA1FBB1F0496A11DB11DAE
S1135500ABBFFC0127912A8B1B8A3B89321708F019
S113551039C160E170E06F8B788F698F7A8F442492
S1135520552412014B8E5C8EF501628173819B01BF
S113553044275527220F331F441F551F86E190E04F
S1135540480E591EC201AA27BB27EAEEFFEF4E0EF2
S11355505F1E820F931FA41FB51FABBFFC01879171
S1135560F9898F1709F0C6C067E170E0460E571E2F
S1135570C201AA27BB27E9EEFFEF4E0E5F1E280FDC
S1135580391F4A1F5B1F4BBFF90187912C854B853F
S1135590682F89859A850E94DE273C01009709F4CB
S11355A0D1C0F5010680F781E02DED8BFE8B7C01E7
S11355B000271127EE0CFF1C001F111F4E01089439
S11355C0811C911C6B8D7C8D6E5E7F4FCC24DD2401
S11355D0F3E0FC8BF50182819381AA27BB27880F16
S11355E0991FAA1FBB1F9B0144275527820F931F96
S11355F0A41FB51FABBFFC018791D4018C93E2E0DB
S1135600F0E0CE0EDF1EC601AA27BB278E0D9F1D1C
S1135610A01FB11FABBFFC018791F4018483FC89F7
S1135620F150FC8B0894C108D1086F5F7F4F089438
S1135630811C911CF7FFCECF2D852223A1F0BE0142
S11356406F5F7F4FCE0105960E945D28882309F481
S113565079C0F101E20DF31D6D897E89E60FF71F14
S1135660608271826FC08101020D131D8D899E8934
S1135670080F191FF50182819381AA27BB27880F80
S1135680991FAA1FBB1F698D7A8D9B01442755273B
S1135690820F931FA41FB51FB695A795979587955D
S11356A0F801808391834EC0F101E20DF31DE40FF4
S11356B0F51FCB01AA27BB27880F991FAA1FBB1F61
S11356C06F89788D9B0144275527820F931FA41F50
S11356D0B51FB695A7959795879580839183EE24FA
S11356E0FF2487012B894AE06CE0F50184810E9444
S11356F0501828C08F3F31F5FD85FF2319F5F501BA
S113570046815781F101E20DF31DE40FF51F01906D
S1135710F081E02D2B853C852317A0F4822F992757
S1135720A3E0880F991FAA95E1F7A985BA858A0F86
S11357309B1F8E179F0709F4B7CF2F5F0896BC8570
S11357402B17B8F3EB89EF5FEB8B0894211C311C0A
S11357502B8D3C8D285F3F4F2B8F3C8F68E070E092
S1135760460E571E898D9A8D860F971F898F9A8FA3
S1135770AF89B88DA60FB71FAF8BB88FBA89EB1757
S113578008F4D2CEF501AACEF889FF5FF88BF43085
S113579008F49BCE6C960FB6F894DEBF0FBECDBF57
S11357A0DF91CF911F910F91FF90EF90DF90CF90F9
S11357B0BF90AF909F908F907F906F905F904F902D
S11357C03F902F9008950F931F938C010E94792985
S11357D0F80182819381AA27BB27880F991FAA1FEA
S11357E0BB1F0596A11DB11DABBFFC0147910197DD
S11357F0A109B109ABBFFC0167910497A109B109E3
S1135800442359F0460F4096A11DB11DB695A795A6
S11358109795879521E00E94242A80E090E01F91CB
S11358200F910895AF92BF92DF92EF92FF920F9380
S11358301F93CF93DF93EC01EE80FF808A819B81DD
S1135840AA27BB27880F991FAA1FBB1F0596A11D56
S1135850B11DABBFFC0147910597A109B1094423D0
S113586009F434C00496A11DB11DABBFFC0117910E
S1135870410F0C96A11DB11DB695A79597958795D7
S113588020E0612F0E94242A112301F1D12E570117
S1135890F501819191915F01AA27BB27880F991F78
S11358A0AA1FBB1F0696A11DB11DABBFFC018791AA
S11358B02C81821749F08F3F39F0EE24FF248701B1
S11358C04AE06CE00E945018DA9411F780E090E00E
S11358D0DF91CF911F910F91FF90EF90DF90BF90D8
S11358E0AF9008950F931F93CF93DF938C01EB0137
S11358F0672B81F0C801AA27BB27880F991FAA1F0D
S1135900BB1F0696A11DB11DABBFFC0187910E9470
S1135910D9138883C801AA27BB27880F991FAA1FF8
S1135920BB1FABBFFC0187919691DF91CF911F9173
S11359300F910895FF920F931F938C01FFB6F89473
S1135940C801AA27BB27880F991FAA1FBB1F069649
S1135950A11DB11DABBFFC0187910E94D913E09139
S1135960EE0BF091EF0B80838091EE0B9091EF0B97
S113597001969093EF0B8093EE0BFFBEC801AA270C
S1135980BB27880F991FAA1FBB1FABBFFC018791C0
S113599096911F910F91FF9008951F931FB7F8944C
S11359A0E091EE0BF091EF0B3197F093EF0BE09356
S11359B0EE0B80810E94D9131FBF1F910895FF929F
S11359C00F931F93F82E062F142F0E94E213212FFA
S11359D0402F6F2D0E942629992787FD90951F91AE
S11359E00F91FF9008950F938CE69AE00E94723510
S11359F080E79AE00E94723584E79AE00E9472354B
S1135A0088E79AE00E94723520E030E0A90183E043
S1135A10F901E40FF51FE458F54F14821582815003
S1135A204F5F5F4F2B5F3F4F87FFF2CF84E000E86B
S1135A30282F40E164E97AE00E943C3D0F910895EB
S1135A40CF93DF93EC01E881F981309721F08A81CB
S1135A509B81892B19F48AEE9FEF1EC08AE0EC36F5
S1135A60F807A9F02B853C854D855E851216130633
S1135A701406150664F483859485A585B685820F7E
S1135A80931FA41FB51F83879487A587B687CE016C
S1135A900E943D3580E090E0DF91CF910895FF9220
S1135AA00F931F93CF93DF93F82EC0916C0AD0917C
S1135AB06D0A8AE0CC36D80799F08E018D818F1556
S1135AC059F40A80DB81C02DC8010E94202DB80141
S1135AD084E99AE00E94E03D0990D881C02DE9CF85
S1135AE0C091700AD091710A8AE0C037D80799F042
S1135AF08E018D818F1559F40A80DB81C02DC80178
S1135B000E943D35B80184E99AE00E94E03D099085
S1135B10D881C02DE9CFC091740AD091750A8AE06A
S1135B20C437D80799F08E018D818F1559F40A80F6
S1135B30DB81C02DC8010E943D35B80184E99AE09B
S1135B400E94E03D0990D881C02DE9CFC091780A28
S1135B50D091790A8AE0C837D80799F08E018D81EF
S1135B608F1559F40A80DB81C02DC8010E943D3590
S1135B70B80184E99AE00E94E03D0990D881C02DE3
S1135B80E9CF80E090E0DF91CF911F910F91FF90DA
S1135B9008959F92AF92BF92CF92DF92EF92FF92BD
S1135BA00F931F93CF93DF93CDB7DEB764970FB6F0
S1135BB0F894DEBF0FBECDBF982ED62E8AE086178E
S1135BC018F48AEE9FEF48C0CC24C61658F5EE248C
S1135BD0FF245E010894A11CB11C87010A0D1B1D42
S1135BE064E084E99AE00E94803DF8018083918317
S1135BF0892B89F4CC2061F00C2D7501F70161919A
S1135C0071917F0184E99AE00E94E03D0150B1F76F
S1135C1084EF9FEF21C0C39482E090E0E80EF91E68
S1135C20CD14B8F2DD20B1F0CD2C00E010E0FE017F
S1135C30E00FF11F0180F281E02D958282E08787D9
S1135C40BF0184E79AE00E943A35CA940E5F1F4F61
S1135C50CC2069F780E090E064960FB6F894DEBF3C
S1135C600FBECDBFDF91CF911F910F91FF90EF90A9
S1135C70DF90CF90BF90AF909F90089565307105ED
S1135C80810591052CF465E070E080E090E009C0A6
S1135C906B3F7105810591053CF06AEF70E080E08F
S1135CA090E00E947B550895862F9927AA27BB2749
S1135CB0BC01CD01F6CF4F925F927F928F929F925B
S1135CC0AF92BF92CF92DF92EF92FF920F931F9306
S1135CD0CF93DF93CDB7DEB728970FB6F894DEBF26
S1135CE00FBECDBF782E3FEFA32EB32E4E010894E6
