S0120000726F6F6D6261746573742E73726563D2
S11300008016010000000102800000002F0086001D
S113001063767630810186006376763081028600CD
S113002063767630810386006376763081048600B9
S113003063637631810586006363763181068600C9
S113004063637631810786006363763181088600B5
S1130050636376318109860063637631810A0F9385
S11300601F93CF93DF93EC018B01FB0186819927CA
S11300708230910529F1833091051CF4892B21F0FC
S11300803BC00697C9F038C0EAEAF1E02591349103
S113009088E0F9010995F80180818C8B1D8A88819B
S11300A099810E94460020E040E050E160E070E069
S11300B0822F0E94500023C080E00E9454001FC081
S11300C0FB01A085B1856C916623C9F48D898823D1
S11300D089F464EF71E08A859B850E9446008D89CE
S11300E08F5F8D8BEAEAF1E02591349188E0F90184
S11300F0099505C06D8B03C08AEE9FEF02C080E0B6
S113010090E0DF91CF911F910F9108958FEF9FEFB2
S105011008954C
S9030000FC
