S0120000726F6F6D6261636F6D6D2E73726563E6
S1130000810E010000000102810000002F00800029
S11300106376763081019A00637676308102B4008B
S1130020637676308103BF006376763081043601CF
S11300306363763181055701636376318106CE01AE
S1130040636376318107EF01636376318108AD0123
S1130050636376318109250263637631810ACF9324
S1130060DF93FC01EB018E81992782309105C1F069
S1130070833091051CF4892B41F01AC08630910518
S1130080D1F08234910589F013C0EAEAF1E02591B8
S1130090349188E0F901099588810E9460000BC0C1
S11300A00484F585E02D099506C00E94310103C042
S11300B08AEE9FEF02C080E090E0DF91CF91089537
S11300C0CF93C82F0E946800FC01DC01149684E0E1
S11300D090E01D92019797FFFCCF1186C28380E0C8
S11300E091E080839183EEE9F1E02591349160E41D
S11300F08C2FF9010995992787FD9095CF91089543
S11301000E946800FC018185882351F0EAEAF1E04D
S11301102591349187E0F901099580EF9FEF0895C7
S113012080E8848381E081870E940901992787FD03
S1130130909508950E946800FC018185882351F000
S1130140EAEAF1E02591349187E0F901099580EF1D
S11301509FEF089582E8848381E081870E940901EA
S1130160992787FD909508950E94680060E070E0EB
S1130170CB010E94D900992787FD909508950E948C
S1130180680080E090E00E94B400882331F480E0AD
S113019090E00E948000882321F0992787FD9095A4
S11301A0089580E090E00E949A00992787FD909539
S11301B008950F931F93CF93DF93EC018B010E945B
S11301C06800FC018185882351F0EAEAF1E0259179
S11301D0349187E0F901099580EF9FEF15C089E814
S11301E084838D2F992787FD9A958583C683812FD4
S11301F0992787FD9A958783008785E081870E94E8
S11302000901992787FD9095DF91CF911F910F9157
S11302100895CF93DF930E946800EC01EEE9F1E0CA
S11302202591349160E48A81F9010995992787FD24
S11302309095882321F0992787FD90950FC0998583
S11302408A81E2EAF1E025913491482F692FCE01A9
S11302500496F9010995992787FD9095DF91CF912F
S113026008950E946800FC0111860895CF93DF93DE
S1130270EB010E946800FC01CE0121E0C53FD207DA
S113028014F084EF91E080839183CE01CC50DE4F53
S113029014F48CE09EEF8083918360E070E80E9408
S11302A0D900992787FD9095DF91CF9108950F93F9
S11302B01F938B010E946800FC01038780E090E09B
S11302C00E946801992787FD90951F910F910895C9
S11302D0CF93DF930E946800EC012A8580E090E8C8
S11302E0821B9109BC01888199810E94D900382F11
S11302F0882361F59A8581E0891B8A872B8568812B
S113030079812A3178F080E094E60E947902CB0169
S113031077FF03C0909581959F4F29512B8768E6FD
S113032071E011C0822F9927982F8827990F990F70
S11303300E947902CB0177FF03C0909581959F4F6E
S11303403B8764EB70E00E945B02382F832F992770
S113035087FD9095DF91CF910895CF93DF93EB01C3
S11303600E946800FC01CE0121E0C53FD20714F0D1
S113037084EF91E080839183CE01CC50DE4F14F45E
S11303808CE09EEF808391836FEF7FEF0E94D90012
S1130390992787FD9095DF91CF910895CF93DF93AF
S11303A0EB010E946800FC01CE0121E0C53FD207A9
S11303B014F084EF91E080839183CE01CC50DE4F22
S11303C014F48CE09EEF8083918361E070E00E94DE
S11303D0D900992787FD9095DF91CF9108950F93C8
S11303E01F93CF93DF938B010E946800EC01688117
S11303F0798180E090E00E94CE018823F1F417FF18
S113040003C080E090E01CC02881398180E098E43A
S1130410089FA001099F500D189F500D1124CA0177
S1130420B9010E947902CB0177FF03C090958195B1
S11304309F4F64EB70E00E945B02992787FD9095C3
S1130440DF91CF911F910F9108950F931F93CF9335
S1130450DF938B010E946800EC016881798180E060
S113046090E00E94AD018823F1F417FF03C080E0FF
S113047090E01CC02881398180E098E4089FA001A5
S1130480099F500D189F500D1124CA01B9010E94F3
S11304907902CB0177FF03C0909581959F4F64EB60
S11304A070E00E945B02992787FD9095DF91CF91C0
S11304B01F910F910895EF92FF920F931F937C0168
S11304C08B010E946800FC0104871587C701AA27D5
S11304D097FDA095BA2F21E0AC01BD0180E00E94F8
S11304E05000992787FD90951F910F91FF90EF90F1
S11304F0089597FB092E07260AD077FD04D00CD067
S113050006D000201AF4709561957F4F0895F6F790
S1130510909581959F4F0895AA1BBB1B51E107C07D
S1130520AA1FBB1FA617B70710F0A61BB70B881F7F
S1130530991F5A95A9F780959095BC01CD0108950E
S9030000FC
